:020000040800F2
:10000000900400200101000891130008E10E00088F
:10001000D51200080F070008011F000800000000AB
:10002000000000000000000000000000A918000807
:10003000D1090008000000008D140008A51900086F
:100040002D1F00081B0100081B0100081B010008F0
:100050001B0100081B0100081B0100081B01000810
:100060001B0100081B0100081B0100081B01000800
:100070001B0100081B0100081B0100081B010008F0
:100080001B0100081B0100081B0100081B010008E0
:100090001B0100081B0100081B010008D50900080E
:1000A0001B0100081B0100081B0100081B010008C0
:1000B0005D1A00081B0100081B0100081B01000855
:1000C0001B0100081B0100081B0100081B010008A0
:1000D0001B0100081B0100081B0100081B01000890
:1000E0001B0100081B0100081B010008DFF80CD0F1
:1000F00000F0ECFA0048004785200008900400203A
:100100000648804706480047FEE7FEE7FEE7FEE7B1
:10011000FEE7FEE7FEE7FEE7FEE7FEE7FD19000863
:10012000ED00000880EA010210B502F00043400033
:1001300022D04A001FD0010E01EB1261C0F356001D
:10014000C2F3560240F4000042F40002A0FB022079
:1001500000047F39140400D0401C50EA124001D43E
:100160004000491EC2B20C0604EBD010401C4008EF
:10017000802A02D003E0002010BD20F001000029F9
:1001800000DA0020184310BD30B480EA010202F00A
:10019000004530F0004221F0004013D090B1C30D73
:1001A000D40DC2F31601C0F31600E41A41F40001A5
:1001B00040F400027D34914201D3641C00E0490008
:1001C000002C02DA30BC002070474FF400000023FE
:1001D000914201D3891A034340084FEA4101F7D104
:1001E00051B1914202D14FF0004105E002D24FF0EF
:1001F000010101E06FF0010103EBC450284430BC61
:1002000000F07EB92DE9FE4F81EA030404F00044BA
:1002100021F0004100944FF0000B23F0004350EA1E
:1002200001045ED052EA03045BD0C3F30A54C1F365
:100230000A552C44A4F2F3340194A0FB0254C1F3F8
:10024000130141F48011C3F3130343F4801301FB42
:10025000024400FB034E840A970A44EA815447EAA9
:100260008357A4FB076802958D0A05FB07854FEAB3
:10027000932C04FB0C542705029D4FEA065847EACD
:100280001637B5EB08056EEB070C870E920E47EAA2
:10029000811742EA8312A7FB0201B6EB0B0164EB64
:1002A00000042B0D43EA0C335E1844EB1C50DA4675
:1002B0005146E7FB0201C5F313044FEA0B3343EA4F
:1002C00014534FEA0432019C43EA0603A4F10C04E0
:1002D0000294009CCDE900B400F058F903B0BDE8E9
:1002E000F08F00200146F9E72DE9F04D81EA030483
:1002F00004F0004B21F0004514464FF0000A23F0B3
:10030000004150EA050220D054EA01021DD0C5F395
:100310000A570246C5F31303C1F31300C1F30A568B
:1003200040F4801543F48013A7EB0608101BD64653
:1003300008F2FD3873EB050002D308F1010801E073
:1003400092185B41B8F1000F03DA00200146BDE8C6
:10035000F08D00204FF48011064684460EE0171BF6
:1003600073EB050705D3121B63EB050306434CEA49
:10037000010C49084FEA300092185B4150EA01072E
:10038000EDD152EA030012D082EA040083EA0501AB
:10039000084305D0101BAB4106D20122002306E022
:1003A00000224FF0004302E06FF0010253101AEBFD
:1003B00006004CEB085110EB0A0041EB0B01BDE8C5
:1003C000F04D00F0D4B896230022114600F0A1B8F9
:1003D0000EB540F2334102910021CDE900110A46E9
:1003E0000B4600F0D3F803B000BD00F0004220F04F
:1003F0000040C10DC0F3160040F400007F2901DA6F
:1004000000207047962903DCC1F19601C84001E045
:1004100096398840002AF4D04042704720F00040CE
:10042000C10DC0F3160040F400007F2901DA00205E
:100430007047962903DCC1F19601C8407047963990
:100440008840704770B5C1F30A5201F0004500249E
:10045000C1F3130140F2FF3341F480119A4201DAF3
:10046000002070BD40F233439A42A2F2334203DCD3
:10047000524200F035F800E090402C43F1D0404269
:1004800070BD00F0004230F000400AD0C10D01F50F
:100490006071C0F3160042EA0151C20840071143DF
:1004A000704700200146704701F0004330B421F04E
:1004B000004150EA010206D00A0DA2F56072C1F3B4
:1004C0001301002A02DC30BC00207047440F44EACC
:1004D000C104C100E01830BC00EBC25000F010B8FD
:1004E000202A04DB203A21FA02F00021704721FA89
:1004F00002F3D040C2F120029140084319467047F0
:100500000029A8BF7047401C490008BF20F0010027
:10051000704710B4B0FA80FC00FA0CF050EA010405
:1005200004BF10BC704749B1CCF1200421FA04F497
:1005300011FA0CF118BF012121430843A3EB0C0170
:10054000CB1D4FEA00614FEA102042BF002010BCD3
:10055000704700EBC35010440029A4BF10BC704783
:10056000401C490008BF20F0010010BC704710B5C6
:10057000141E73F1000408DA401C41F100019218C6
:100580005B411A4301D120F0010010BD2DE9F04D6F
:1005900092469B4611B1B1FA81F202E0B0FA80F2C4
:1005A0002032904600F0A4F804460F4640EA0A00C4
:1005B00041EA0B0153465A46084313D0114653EA09
:1005C000010019D0C8F140025046FFF789FF0546E7
:1005D0000E4650465946424600F08AF8084305D078
:1005E000012004E020463946BDE8F08D0020054397
:1005F00046EAE0762C4337430A986305E40AA0EB09
:1006000008000022FD0A44EA47540A3002D50020BF
:100610000146E9E7010510196941DDE908450019BE
:100620006941BDE8F04DA2E72DE9F04D00231A46DF
:100630001B1A8A4103DB00200146BDE8F08DC1F39F
:100640000A52C1F3130141F480154FF0000BD1079A
:1006500002D100186D41521E0027044640F2FF11DE
:10066000384601EB620A3E468046024600204FF4BF
:100670008011FFF735FFC2197141BB1846EB01002D
:10068000B4EB030C75EB000C04D3E41A65EB000526
:1006900017460E46241908F101006D4180463428A2
:1006A000E3DDF91946EB0600091BA84103D24FF020
:1006B000FF32134601E0002213461BEB070046EB16
:1006C0000A51BDE8F04DFFF752BF0000064C074D40
:1006D00006E0E06840F0010394E807009847103412
:1006E000AC42F6D3FFF706FDC8210008E821000858
:1006F000202A04DB203A00FA02F1002070479140E2
:10070000C2F1200320FA03F319439040704700BF61
:10071000FEE7000010B580211B4800F023FB0128F4
:1007200019D100201949887008460078401C0870CB
:1007300008460078032826DB08464078002822D1A6
:10074000022048700020087011A001F055FC012023
:100750001449C87417E000200C49087008468078D6
:10076000401C88700846807803280CDB08464078D7
:1007700048B901204870002088700BA001F03CFCB3
:1007800001200849C87410BD000801407C00002009
:100790005573655F4F6C645F436D645F506F727437
:1007A0000D0A0000640000205573655F4E65775F99
:1007B000436D645F506F72740D0A000010B5202104
:1007C0000A4800F0CFFA68B90948C07A401C0849C5
:1007D000C8720846C07A022807DB0120087300208F
:1007E000C87202E000200249C87210BD000C01402E
:1007F0007C00002010B508211D4800F0B3FAA8B90C
:1008000010211B4800F0AEFA01280FD11948C0781A
:10081000401C1849C8700846C078032809DB01202D
:100820001549487000201349C87002E000201149A2
:10083000C87008210E4800F095FA012814D1102143
:100840000B4800F08FFA78B90A480079401C094932
:10085000087108460079032809DB02200649487020
:1008600000200449087102E000200249087110BD0F
:10087000000801407C0000206400002010B5022127
:100880003D4800F06FFA01280FD100203B498871E4
:1008900008464079401C487108464079052813DB1A
:1008A0000120C871002048710EE0002033494871D2
:1008B00008468079401C887108468079022803DB4D
:1008C0000220C8710020887104212B4800F04AFAE8
:1008D00001280FD10020294948720846007A401C9F
:1008E00008720846007A052813DB01208872002070
:1008F00008720EE00020214908720846407A401C28
:1009000048720846407A022803DB022088720020E1
:1009100048721A48C079012807D11848807A0228FD
:1009200003D101201649C87008751448C0790228FF
:1009300006D11248807A012802D111490871087540
:100940000E48C079012809D10C48807A012805D1C8
:1009500004200B4908700120887408750748C07985
:10096000022808D10548807A022804D10449087178
:10097000C8700120087510BD000801407C000020EF
:100980006400002010B508210E4800F0F6F900229E
:1009900011464FF0804001F037F900214FF08040C0
:1009A00001F044F900200849087088614860086136
:1009B00048618883887708620449087488604874AD
:1009C000C86010BD000C0140400000206400002001
:1009D0007047000010B54FF4807000F031F878B126
:1009E0004FF4807000F026F84FF400710F4800F0CB
:1009F000B9F908B9012000E002200D49087013E0A0
:100A00004FF4007000F01CF870B14FF4007000F06B
:100A100011F84FF48071054800F0A4F908B90220DC
:100A200000E001200249087010BD0000000C0140E8
:100A3000360000200149086070470000140401409E
:100A4000014600200022074B1B6803EA0102054B08
:100A500014331B680B4013B10AB1012000E00020E1
:100A60007047000000040140002123498279002AD8
:100A70003AD00A46126803689A430B461A600A1D68
:100A8000126803689A430B1D1A60027911440A68C0
:100A900003681A430A60184A0832126803689A43C6
:100AA000154B08331A601A1D126803689A43124BDB
:100AB0000C331A604279102A0ED11A1F126803688B
:100AC0001A430D4B08331A601A1D126803681A4343
:100AD000094B0C331A600DE00749427911440A684A
:100AE00003681A430A6005E0027911440A68036842
:100AF0009A430A60704700000004014010B50446A4
:100B0000FFF740FF012C04D0022C09D0032C15D193
:100B10000DE00C48007810B90BA001F06DFA0EE062
:100B20000D48007810B90DA001F066FA07E00F48F3
:100B3000007810B90EA001F05FFA00E000BF00BF1E
:100B400010BD00003200002053656E736F725F6548
:100B500072720D0A000000003300002054696D5FBE
:100B60004F7665725F6572720D0A000034000020D6
:100B700049435F6572720D0A0000000030B5002223
:100B80008B071C0F0F2303FA04F20B4B8C1053F846
:100B900024309343084C8D1044F8253023468C10A4
:100BA00053F824308C07240F00FA04F42343024C3A
:100BB0008D1044F8253030BD080001402DE9F0418A
:100BC000024600250026002000230024002791F87B
:100BD00003C00CF00F0591F803C00CF0100CBCF131
:100BE000000F03D091F802C04CEA050591F800C04F
:100BF000BCF1000F31D0146800202BE04FF0010C45
:100C00000CFA00F3B1F800C00CEA03069E4220D1B2
:100C100083004FF00F0C0CFA03F7BC4305FA03FCFA
:100C20004CEA040491F803C0BCF1280F06D14FF040
:100C3000010C0CFA00FCC2F814C00AE091F803C0E1
:100C4000BCF1480F05D14FF0010C0CFA00FCC2F8C2
:100C500010C0401C0828D1D31460B1F800C0BCF10A
:100C6000FF0F34DD546800202EE000F1080C4FF037
:100C7000010808FA0CF3B1F800C00CEA03069E4222
:100C800021D183004FF00F0C0CFA03F7BC4305FA97
:100C900003FC4CEA040491F803C0BCF1280F05D111
:100CA00000F1080C08FA0CF8C2F8148091F803C09F
:100CB000BCF1480F07D100F1080C4FF0010808FA09
:100CC0000CF8C2F81080401C0828CED35460BDE850
:100CD000F0810000F0B50A46002300240021002521
:100CE00000F00046B6F1004F02D11D4EF16901E05F
:100CF0001B4E7168C0F3034583B200F44016B6F58D
:100D0000401F08D121F07061154E766826F070669C
:100D1000134F7E6012E000F48016B6F5801F06D1F6
:100D2000032606FA05F4A14341F0706106E0460D82
:100D3000360103FA06F6B14341F0706122B1460D67
:100D4000360103FA06F6314300F00046B6F1004FD3
:100D500002D1034EF16101E0014E7160F0BD00006F
:100D6000000001400246002093680B400BB10120B7
:100D700000E000207047416170470161704708B58D
:100D80004FF4A06000F03EFB1C208DF80000002016
:100D90008DF8010002208DF8020001208DF803007B
:100DA000684600F0F7FA08BD00B587B00121084693
:100DB00000F06EFB4FF6FF70ADF814000320ADF8A5
:100DC00010000020ADF81600ADF812008DF81800E4
:100DD00004A94FF0804000F0AFFF3020ADF80000D4
:100DE0000120ADF802000020ADF806000220ADF8A9
:100DF0000800C001ADF80C006946800500F04EFF08
:100E00000221480700F00FFF01220221480700F0ED
:100E10003CFF0121880700F015FF002211464FF02A
:100E2000804000F0F1FE00214FF0804000F0FEFE17
:100E300007B000BD08B5002024490870487048601C
:100E40008860C86008614861886188838877086223
:100E500001210D2000F02CFB01211D48FFF73AFF76
:100E600001211C48FFF736FF4FF40040ADF80000A9
:100E700003208DF8020018208DF8030069461648FB
:100E8000FFF79CFE0820ADF8000003208DF802005B
:100E900010208DF8030069461048FFF78FFE0821E7
:100EA0000E48FFF76AFF1020ADF8000003208DF810
:100EB000020010208DF8030069460848FFF77EFE07
:100EC00010210648FFF757FF08BD00004000002032
:100ED000000230000001180000080140000C014031
:100EE00000BFFEE700200749087048708870C8708E
:100EF000087188600874C86048748874C87408757C
:100F000070470000640000201FB54FF4A06000F09F
:100F100079FA0121092000F0CBFA4FF40070ADF806
:100F20000C0028208DF80F0003A92248FFF746FE89
:100F30004FF48070ADF80C0028208DF80F0003A945
:100F40001C48FFF73BFE08210120FFF717FE09218F
:100F50000120FFF713FE4FF48070019001208DF8FF
:100F60000A0000208DF8080008208DF8090001A86B
:100F7000FFF77AFD4FF40070019001208DF80A0010
:100F800000208DF8080008208DF8090001A8FFF75F
:100F90006BFD17208DF8000001208DF80300002064
:100FA0008DF8010001208DF80200684600F0F2F98A
:100FB0001FBD0000000C014000B585B001210820D4
:100FC00000F076FA0121880400F062FA4FF48060A4
:100FD000ADF8100018208DF8130003208DF81200D2
:100FE00004A91348FFF7EAFD4FF40060ADF81000C4
:100FF00004208DF8130004A90D48FFF7DFFD4FF41E
:10100000E13000900020ADF80400ADF80600ADF826
:101010000800ADF80C000820ADF80A006946054844
:1010200000F0FEFE0121034800F0E1FE05B000BD26
:10103000000C01400048004030B5164800684FF4ED
:101040007A72B0FBF2F1B1F1807F01D301201DE093
:1010500021F07F40401E4FF0E022506150170F22D8
:10106000002807DA13071D0E0B4B00F00F04241F96
:101070001D5503E013071C0E084B1C5400BF002035
:101080004FF0E022906107201061002008B100BFFE
:10109000FEE730BD0000002018ED00E000E400E0B5
:1010A00010B56748007805286FD2DFE800F0030D1F
:1010B000346FC0006248C07C28B16148007D10B127
:1010C00001205F490870B8E05D4880785C49497844
:1010D00088421FD05A48407800281BD00220584927
:1010E000087008464078887008464078012803D187
:1010F00054A000F081FF0DE051484078022803D150
:1011000057A000F079FF05E04D48407810B95BA08A
:1011100000F072FF91E04A484078012814D1484815
:10112000C078012810D05CA000F066FF40F21133B7
:101130004FF4AF7211465E4800F0BCFA01204049FE
:1011400008740020886018E03D484078022814D1D7
:101150003B480079012810D056A000F04DFF40F226
:1011600011334FF4AF7211465148404200F0A2FAD9
:101170000120334948740020C86008215448FFF713
:10118000FAFD03202E49087057E055E02C484078BE
:10119000012823D12A48C07802280BD1284880682A
:1011A00040F65431884205D30420254908700220B6
:1011B000887413E02248C07801280FD12048806845
:1011C00040F65431884209D2FFF7DCFB00201C496D
:1011D00048700846407888700120087018484078A8
:1011E000022823D11648007902280BD11448C06880
:1011F00040F65431884205D304201149087002207A
:10120000887413E00E48007901280FD10C48C0689B
:1012100040F65431884209D2FFF7B4FB0020084958
:1012200048700846407888700120087005E004493D
:10123000887CFFF763FC00E000BF00BF10BD00002A
:101240006400002052585F4E65775F436D642069EB
:101250007320436D644C6F636B3A0D0A000000000D
:1012600052585F4E65775F436D6420697320436D0C
:1012700064556E6C6F636B3A0D0A000052585F4EF6
:1012800065775F436D6420697320436D6453746FA9
:10129000703A0D0A0000000052785F4C6F636B4398
:1012A0006D645F416E645F53746172740D0A000077
:1012B000001EE2FF52785F556E6C6F636B436D6486
:1012C0005F416E645F53746172740D0A0000000028
:1012D000000C014000BFFEE710B5044624B1102108
:1012E0000448FFF74AFD03E010210248FFF743FDE1
:1012F00010BD0000000C014008B501210C2000F0D9
:10130000D7F80620ADF8000048208DF803006946A4
:101310001D48FFF753FC1820ADF8000048208DF859
:10132000030069461848FFF749FC2020ADF800008B
:1013300048208DF8030069461448FFF73FFC202140
:101340001248FFF71AFD8020ADF8000028208DF824
:10135000030069460C48FFF731FC6020ADF800003F
:1013600010208DF8030001208DF802006946064820
:10137000FFF724FC40210448FFF7FFFC202102482E
:10138000FFF7FBFC08BD000000080140000C014015
:101390007047000070B5002100230F22C47804B309
:1013A000154C246804F4E064C4F5E064210AC1F13A
:1013B0000403CA40447804FA03F1847814402143BA
:1013C00009010E4C0678A155047804F01F0501248C
:1013D000AC4005786D11AD0005F1E025C5F8004180
:1013E00009E0047804F01F050124AC40044D0678A0
:1013F000761145F8264070BD0CED00E000E400E0F9
:1014000080E100E002490143024A11607047000098
:101410000000FA050CED00E010B5FFF7EBF910BD88
:1014200016480078A8B1154800781549097888420F
:1014300005D114480078401C1249087006E00020CD
:10144000104908700D4800780D49087000200B49BC
:1014500008700C48007803280FDB09480078012841
:1014600002D10949487005E005480078022801D1F9
:101470000549487000200349087070473600002075
:101480003000002031000020640000207047000080
:1014900029B1064AD2690243044BDA6104E0034AE7
:1014A000D2698243014BDA617047000000100240AC
:1014B00029B1064A92690243044B9A6104E0034A47
:1014C00092698243014B9A6170470000001002400C
:1014D00030B500210022002400232D4D6D6805F059
:1014E0000C0121B1042905D0082923D105E0294D9B
:1014F000056022E0274D05601FE0254D6D6805F46D
:101500007012234D6D6805F48034022505EB92427C
:101510001CB9214D554305600BE01D4D6D6805F468
:1015200000351DB11C4D5543056002E0194D554372
:10153000056002E0174D056000BF00BF144D6D68E7
:1015400005F0F0010909154D6B5C0568DD4045604B
:101550000F4D6D6805F4E061090A104D6B5C45683C
:10156000DD4085600A4D6D6805F46051C90A0B4D78
:101570006B5C4568DD40C560054D6D6805F4404114
:10158000890B074D6B5CC568B5FBF3F5056130BD94
:101590000010024000127A0000093D0014000020F3
:1015A0002400002010B53248007804285FD030486D
:1015B000C07801281BD12E48806840F654318842FB
:1015C00015D22C48007850B92BA000F015FD294801
:1015D0000078401C2749087000202B4908704021E2
:1015E0002A48FFF7C8FB20212848FFF7C6FB204800
:1015F000007901281BD11E48C06840F6543188424A
:1016000015D22348007850B922A000F0F5FC2048FC
:101610000078401C1E49087000201B4908704021BA
:101620001A48FFF7AAFB20211848FFF7A4FB10482F
:10163000007902281BD10E48C078022817D1124821
:10164000007860B918A000F0D7FC0F480078401C63
:101650000D4908700020074908700D4908704021A5
:101660000A48FFF78AFB20210848FFF786FB10BDD8
:1016700064000020280000204C6F636B4F6B264FE6
:1016800075747075740D0A002A000020000801406E
:1016900029000020556E6C6F636B4F6B264F75747D
:1016A0007075740D0A00000049646C655F4D6F64CD
:1016B0000D0A00002DE9F04F8FB004460E46174684
:1016C0009946FFF75FF914B90FB0BDE8F08F002C11
:1016D00004DA01206B494870644202E00020694945
:1016E000487068494878FFF7F7FD012C08D10220BF
:1016F00064490870C01E48614FF47A704860A5E0E4
:10170000002CFCD04846FEF75EFE5F490D9009684C
:101710008808FEF758FE5D490B90FEF703FD0C901C
:101720000D99FEF731FD8346FEF75FFE55490861CE
:101730003046FEF748FE014603905548FEF724FD6B
:101740008346FEF79EFECDE9040100F017FDCDE9CA
:1017500008014D4909688808FEF73AFE4D4A4E4B8C
:10176000CDE90001FEF74EFD00224C4BCDE9020110
:10177000FEF7BAFDCDE90401FEF796FE8346FEF7BB
:1017800080FECDE90601DDE90823FEF73BFD0022DE
:10179000424BCDE90A01FEF7A7FDCDE90C01FEF7AA
:1017A00051FE384948603046FEF70DFE3C490A902C
:1017B000FEF7B8FC83463B49FEF7E6FC0C9009FBBC
:1017C00009F0FEF700FE0B900C99FEF7DDFC0D9082
:1017D000FEF724FE054605B9012504FB07F0F119C3
:1017E000B0FBF1F8B8F1000F01D14FF00108A845A6
:1017F00004D8A8EB04002349C86006E005FB06F006
:10180000B0FBF7F040421F49C8601E48C06818B9D5
:101810004FF0FF301B49C8601A48C068204419497E
:101820008860084640680969884206DC15480069F6
:10183000144948600320087005E001201149087030
:1018400008460069888300200E4948614FF08040B7
:1018500000F007FA82460B48D0F804B00BEBDB70BF
:101860000AEB600081B24FF0804000F063FA012281
:101870000021900700F0C8F90121880700F0D6F98F
:1018800000BF21E7400000200000002072D9203C6A
:10189000705944436F1283C0CAA1E53F0000244041
:1018A000CF0F493E00002041704710B500F002F80C
:1018B00010BD00000CB50020019000903348006876
:1018C00040F480303149086000BF3048006800F4BF
:1018D000003000900198401C0190009818B90198C0
:1018E000B0F5A06FF1D12948006800F4003010B1C4
:1018F0000120009001E0002000900098012843D1D1
:101900002348006840F0100021490860084600683C
:1019100020F0030008600846006840F002000860FC
:101920001A484068194948600846406848600846B7
:10193000406840F4806048600846406820F47C10AD
:1019400048600846406840F4E8104860084600686F
:1019500040F08070086000BF0C48006800F0007024
:101960000028F9D00948406820F003000749486082
:101970000846406840F00200486000BF03484068E5
:1019800000F00C000828F9D10CBD00000010024046
:101990000020024010B5FFF74DFAFFF7F0F9FFF70E
:1019A00003FA10BD01201049087010480078401C4F
:1019B0000E490870084600780A2813DB01200C49FC
:1019C00008700020094908700A480078401C09493D
:1019D000087008460078322804DB002008700120D7
:1019E00005490870704700002F0000202B000020E0
:1019F0002E0000202C0000202D00002010B51348E0
:101A0000006840F00100114908600846406810492C
:101A100008400E494860084600680E4908400B49D6
:101A200008600846006820F4802008600846406886
:101A300020F4FE0048604FF41F008860FFF735FF78
:101A40004FF000600449086010BD00000010024023
:101A50000000FFF8FFFFF6FE08ED00E070B500257E
:101A6000002600240221480700F0FEF8002872D06A
:101A70000221480700F0D7F84FF0804000F0F1F85D
:101A800005466049486800EBD07105EB6106B1B2CC
:101A90004FF0804000F04EF95A48807F401C594971
:101AA00088770846807F022855D10020887708462D
:101AB000007830B101280BD0022863D0032806D16A
:101AC0004AE0FEF75FFF00204E498861086294E01B
:101AD0004C488069401C4B49886108464069401C5D
:101AE00048610846006A4968022202FB0101454834
:101AF00040698000401C91FBF0F042494968081A97
:101B000084B24048006A3F49496802FB01013D48F0
:101B100040698000401C91FBF0F200FB1210394933
:101B20000862084680698968884206D33548C068DB
:101B300034494861022008700CE032480069A04234
:101B400008DB30488483006984B200202D49086294
:101B50000320087051E053E02A488069401C29495D
:101B600088610846006984B20846806989688842AD
:101B700007D32448C068234948610846848B022063
:101B800008703AE01F488069401C1E498861084679
:101B90004069401C48610846006A4968022202FB0D
:101BA0000101184840698000401C91FBF0F0154984
:101BB0004968081A84B21348006A1249496802FB4E
:101BC0000101104840698000401C91FBF0F200FBCD
:101BD00012100C4908620846406900280CDB0020FE
:101BE0000870002211464FF0804000F00DF80021EF
:101BF0004FF0804000F01AF800BF00BF0148446079
:101C000070BD00004000002030B5002301248C404E
:101C1000A3B2048C9C430484048C02FA01F5ADB297
:101C20002C43048430BDCA430282704721B102882C
:101C300042F00102028004E002884FF6FE731A406F
:101C40000280704731B1B0F8442042F40042A0F85D
:101C5000442005E0B0F84420C2F30E02A0F844206E
:101C600070470146888C704730B50246002000233B
:101C70000024158A05EA0103958905EA010413B1D8
:101C80000CB1012000E0002030BD1AB183890B4364
:101C9000838102E083898B438381704770B5002480
:101CA00000220023058C4FF6FE7635400584028C19
:101CB0008388048B4FF68F752C40B51E2C400D8801
:101CC0002C43751E2A400D892A434D882A43144D02
:101CD000A8420BD0134DA84208D0134DA84205D0FE
:101CE000124DA84202D0124DA84213D14FF6F775FB
:101CF0002A404D892A434FF6FB752A408D882A4396
:101D00004FF6FF652B404FF6FF552B408D892B4337
:101D1000CD892B4383800483CD888586028470BD62
:101D2000002C0140003401400040014000440140CB
:101D30000048014081867047002202881D4B98426E
:101D40000ED01D4B98420BD0B0F1804F08D01B4BEA
:101D5000984205D01A4B984202D01A4B984204D1AF
:101D60004FF68F731A404B881A43174B984207D08F
:101D7000164B984204D04FF6FF431A40CB881A43C3
:101D800002808B8883850B8803850A4B98420BD091
:101D9000094B984208D00E4B984205D00D4B984203
:101DA00002D00D4B984201D10B7A03860123838226
:101DB00070470000002C0140003401400004004046
:101DC00000080040000C00400010004000140040DB
:101DD00000400140004401400048014001F400720D
:101DE000B2F5007F00D100BFCA430280704721B125
:101DF000828942F40052828104E082894DF6FF73A9
:101E00001A408281704702460020B1F5007F00D160
:101E100000BF13880B400BB1012000E00020704789
:101E20002DE9F04786B005460E460024A24600BFC5
:101E3000A1460027B08900B100BF2F462C8A4CF67E
:101E4000FF700440F08804432C82AC894EF6F310F6
:101E50000440B08831890843718908430443AC8148
:101E6000AC8A4FF6FF400440B0890443AC8201A81D
:101E7000FFF72EFB1F48874202D1DDF810A001E0DA
:101E8000DDF80CA0A88900F4004040B10AEBCA00BC
:101E900000EB0A1031684900B0FBF1F807E00AEBEB
:101EA000CA0000EB0A1031688900B0FBF1F8642029
:101EB000B8FBF0F004012009642101FB1089A88916
:101EC00000F4004040B1322000EBC900B0FBF1F05B
:101ED00000F00700044308E0322000EB0910642101
:101EE000B0FBF1F000F00F0004432C8106B0BDE818
:101EF000F087000000380140C1F30802828070477B
:101F000000BFFEE70020014908607047082C004030
:101F100040F08001014A116070470000002C004031
:101F20000120014908607047A480054210B50348AC
:101F3000007800F039F8FFF7E5FF10BD350000200C
:101F400070B506460C4615460121C802FFF7A0FAF7
:101F50000A480078304009490870284600F02CF8FB
:101F6000204600F035F805480078FFF7D1FFFFF76D
:101F7000C9FF00F005F8FFF7D3FF70BD3500002062
:101F800008B54FF4A060FFF73DFA00208DF800007F
:101F90008DF801008DF8020001208DF803006846DD
:101FA000FFF7F8F908BD000000F07F01014A116059
:101FB00070470000002C00400021044A126822F4FF
:101FC000C0710143014A116070470000042C0040B9
:101FD00008B5002100910749096821F07F010091AF
:101FE00000F07F01009A11430091024A00991160AC
:101FF00008BD0000042C0040014A024900F01AB854
:10200000592000083800002002E008C8121F08C14B
:10201000002AFAD170477047002001E001C1121F69
:10202000002AFBD17047000001490860704700009A
:102030003C0000202DE9F04116460F4604460025DD
:1020400003E03946B047641C6D1C20780028F8D1A5
:102050002846BDE8F081000070B504460D464021D9
:102060000748FFF7BBFEE1B20548FFF745FF00BF99
:1020700040210348FFF7C7FE0028F9D0204670BD75
:1020800000480040FEF7D8FFFEF796FFFFF734F94F
:10209000FEF73AFFFFF77EFCFEF724FF4FF4C07215
:1020A0005F217F20FFF74CFF2BA0FFF7A5FF51E03A
:1020B0002D48007B20B104202C490870032088742F
:1020C000FEF7EEFF2A48007860B10020284908702A
:1020D00026480078012805D123484078022801D1FC
:1020E000FFF79EF92348007848B300202149087083
:1020F000FEF710FB1D48007808B9FEF7BFFBFEF79E
:102100005DFB1A480078012805D11748407801285E
:1021100001D1FFF781F9FFF745FA1448007C012847
:1021200004D112488068401C104988600F48407CE8
:10213000012804D10D48C068401C0C49C8600E48F5
:10214000007838B100200C4908700848007808B1C0
:10215000FEF794FBACE70000482048203A49646C45
:10216000655F4D6F640D0A007C0000206400002054
:102170002F0000202E0000202D0000202DE9F0412E
:1021800006460F46FEF750FA041E0D4618BF012002
:10219000284320F00040C0F17F6000F1E040C00F14
:1021A0000ED0301C18BF0120384320F00040C0F191
:1021B0007F6000F1E040C00F04BF0120FFF734FF53
:1021C00020462946BDE8F081E821000800000020F3
:1021D00040000000082000082822000840000020DD
:1021E000500400001820000800A24A04000000006B
:1021F00000000000010203040607080900000000B7
:102200000102030401020304060708090204060888
:10221000000000000000000000000000007F00003F
:082220000000000000000000B6
:04000005080000ED02
:00000001FF
